{
  "_format": "hh-sol-artifact-1",
  "contractName": "QuestToken",
  "sourceName": "QuestToken.sol",
  "abi": [
    {
      "inputs": [],
      "stateMutability": "nonpayable",
      "type": "constructor"
    },
    {
      "inputs": [
        {
          "internalType": "address",
          "name": "spender",
          "type": "address"
        },
        {
          "internalType": "uint256",
          "name": "allowance",
          "type": "uint256"
        },
        {
          "internalType": "uint256",
          "name": "needed",
          "type": "uint256"
        }
      ],
      "name": "ERC20InsufficientAllowance",
      "type": "error"
    },
    {
      "inputs": [
        {
          "internalType": "address",
          "name": "sender",
          "type": "address"
        },
        {
          "internalType": "uint256",
          "name": "balance",
          "type": "uint256"
        },
        {
          "internalType": "uint256",
          "name": "needed",
          "type": "uint256"
        }
      ],
      "name": "ERC20InsufficientBalance",
      "type": "error"
    },
    {
      "inputs": [
        {
          "internalType": "address",
          "name": "approver",
          "type": "address"
        }
      ],
      "name": "ERC20InvalidApprover",
      "type": "error"
    },
    {
      "inputs": [
        {
          "internalType": "address",
          "name": "receiver",
          "type": "address"
        }
      ],
      "name": "ERC20InvalidReceiver",
      "type": "error"
    },
    {
      "inputs": [
        {
          "internalType": "address",
          "name": "sender",
          "type": "address"
        }
      ],
      "name": "ERC20InvalidSender",
      "type": "error"
    },
    {
      "inputs": [
        {
          "internalType": "address",
          "name": "spender",
          "type": "address"
        }
      ],
      "name": "ERC20InvalidSpender",
      "type": "error"
    },
    {
      "inputs": [
        {
          "internalType": "address",
          "name": "owner",
          "type": "address"
        }
      ],
      "name": "OwnableInvalidOwner",
      "type": "error"
    },
    {
      "inputs": [
        {
          "internalType": "address",
          "name": "account",
          "type": "address"
        }
      ],
      "name": "OwnableUnauthorizedAccount",
      "type": "error"
    },
    {
      "anonymous": false,
      "inputs": [
        {
          "indexed": true,
          "internalType": "address",
          "name": "owner",
          "type": "address"
        },
        {
          "indexed": true,
          "internalType": "address",
          "name": "spender",
          "type": "address"
        },
        {
          "indexed": false,
          "internalType": "uint256",
          "name": "value",
          "type": "uint256"
        }
      ],
      "name": "Approval",
      "type": "event"
    },
    {
      "anonymous": false,
      "inputs": [
        {
          "indexed": true,
          "internalType": "address",
          "name": "previousOwner",
          "type": "address"
        },
        {
          "indexed": true,
          "internalType": "address",
          "name": "newOwner",
          "type": "address"
        }
      ],
      "name": "OwnershipTransferred",
      "type": "event"
    },
    {
      "anonymous": false,
      "inputs": [
        {
          "indexed": true,
          "internalType": "address",
          "name": "player",
          "type": "address"
        },
        {
          "indexed": false,
          "internalType": "uint256",
          "name": "amount",
          "type": "uint256"
        }
      ],
      "name": "QuestCompleted",
      "type": "event"
    },
    {
      "anonymous": false,
      "inputs": [
        {
          "indexed": true,
          "internalType": "address",
          "name": "from",
          "type": "address"
        },
        {
          "indexed": true,
          "internalType": "address",
          "name": "to",
          "type": "address"
        },
        {
          "indexed": false,
          "internalType": "uint256",
          "name": "value",
          "type": "uint256"
        }
      ],
      "name": "Transfer",
      "type": "event"
    },
    {
      "inputs": [
        {
          "internalType": "address",
          "name": "owner",
          "type": "address"
        },
        {
          "internalType": "address",
          "name": "spender",
          "type": "address"
        }
      ],
      "name": "allowance",
      "outputs": [
        {
          "internalType": "uint256",
          "name": "",
          "type": "uint256"
        }
      ],
      "stateMutability": "view",
      "type": "function"
    },
    {
      "inputs": [
        {
          "internalType": "address",
          "name": "spender",
          "type": "address"
        },
        {
          "internalType": "uint256",
          "name": "value",
          "type": "uint256"
        }
      ],
      "name": "approve",
      "outputs": [
        {
          "internalType": "bool",
          "name": "",
          "type": "bool"
        }
      ],
      "stateMutability": "nonpayable",
      "type": "function"
    },
    {
      "inputs": [
        {
          "internalType": "address",
          "name": "account",
          "type": "address"
        }
      ],
      "name": "balanceOf",
      "outputs": [
        {
          "internalType": "uint256",
          "name": "",
          "type": "uint256"
        }
      ],
      "stateMutability": "view",
      "type": "function"
    },
    {
      "inputs": [
        {
          "internalType": "uint256",
          "name": "amount",
          "type": "uint256"
        }
      ],
      "name": "burn",
      "outputs": [],
      "stateMutability": "nonpayable",
      "type": "function"
    },
    {
      "inputs": [
        {
          "internalType": "uint256",
          "name": "amount",
          "type": "uint256"
        }
      ],
      "name": "claimFaucet",
      "outputs": [],
      "stateMutability": "nonpayable",
      "type": "function"
    },
    {
      "inputs": [
        {
          "internalType": "string",
          "name": "answer",
          "type": "string"
        }
      ],
      "name": "completeQuest",
      "outputs": [],
      "stateMutability": "nonpayable",
      "type": "function"
    },
    {
      "inputs": [],
      "name": "decimals",
      "outputs": [
        {
          "internalType": "uint8",
          "name": "",
          "type": "uint8"
        }
      ],
      "stateMutability": "view",
      "type": "function"
    },
    {
      "inputs": [],
      "name": "getMaxSupply",
      "outputs": [
        {
          "internalType": "uint256",
          "name": "",
          "type": "uint256"
        }
      ],
      "stateMutability": "pure",
      "type": "function"
    },
    {
      "inputs": [
        {
          "internalType": "address",
          "name": "account",
          "type": "address"
        }
      ],
      "name": "hasCompletedQuest",
      "outputs": [
        {
          "internalType": "bool",
          "name": "",
          "type": "bool"
        }
      ],
      "stateMutability": "view",
      "type": "function"
    },
    {
      "inputs": [
        {
          "internalType": "address",
          "name": "to",
          "type": "address"
        },
        {
          "internalType": "uint256",
          "name": "amount",
          "type": "uint256"
        }
      ],
      "name": "mint",
      "outputs": [],
      "stateMutability": "nonpayable",
      "type": "function"
    },
    {
      "inputs": [],
      "name": "name",
      "outputs": [
        {
          "internalType": "string",
          "name": "",
          "type": "string"
        }
      ],
      "stateMutability": "view",
      "type": "function"
    },
    {
      "inputs": [],
      "name": "owner",
      "outputs": [
        {
          "internalType": "address",
          "name": "",
          "type": "address"
        }
      ],
      "stateMutability": "view",
      "type": "function"
    },
    {
      "inputs": [
        {
          "internalType": "address",
          "name": "",
          "type": "address"
        }
      ],
      "name": "questCompleted",
      "outputs": [
        {
          "internalType": "bool",
          "name": "",
          "type": "bool"
        }
      ],
      "stateMutability": "view",
      "type": "function"
    },
    {
      "inputs": [],
      "name": "renounceOwnership",
      "outputs": [],
      "stateMutability": "nonpayable",
      "type": "function"
    },
    {
      "inputs": [],
      "name": "symbol",
      "outputs": [
        {
          "internalType": "string",
          "name": "",
          "type": "string"
        }
      ],
      "stateMutability": "view",
      "type": "function"
    },
    {
      "inputs": [],
      "name": "totalSupply",
      "outputs": [
        {
          "internalType": "uint256",
          "name": "",
          "type": "uint256"
        }
      ],
      "stateMutability": "view",
      "type": "function"
    },
    {
      "inputs": [
        {
          "internalType": "address",
          "name": "to",
          "type": "address"
        },
        {
          "internalType": "uint256",
          "name": "value",
          "type": "uint256"
        }
      ],
      "name": "transfer",
      "outputs": [
        {
          "internalType": "bool",
          "name": "",
          "type": "bool"
        }
      ],
      "stateMutability": "nonpayable",
      "type": "function"
    },
    {
      "inputs": [
        {
          "internalType": "address",
          "name": "from",
          "type": "address"
        },
        {
          "internalType": "address",
          "name": "to",
          "type": "address"
        },
        {
          "internalType": "uint256",
          "name": "value",
          "type": "uint256"
        }
      ],
      "name": "transferFrom",
      "outputs": [
        {
          "internalType": "bool",
          "name": "",
          "type": "bool"
        }
      ],
      "stateMutability": "nonpayable",
      "type": "function"
    },
    {
      "inputs": [
        {
          "internalType": "address",
          "name": "newOwner",
          "type": "address"
        }
      ],
      "name": "transferOwnership",
      "outputs": [],
      "stateMutability": "nonpayable",
      "type": "function"
    }
  ],
  "bytecode": "0x608060405234801561001057600080fd5b50336040518060400160405280600a81526020016928bab2b9ba2a37b5b2b760b11b8152506040518060400160405280600581526020016414555154d560da1b81525081600390816100629190610318565b50600461006f8282610318565b5050506001600160a01b0381166100a157604051631e4fbdf760e01b8152600060048201526024015b60405180910390fd5b6100aa816100c3565b506100be33683635c9adc5dea00000610115565b6103fd565b600580546001600160a01b038381166001600160a01b0319831681179093556040519116919082907f8be0079c531659141344cd1fd0a4f28419497f9722a3daafe3b4186f6b6457e090600090a35050565b6001600160a01b03821661013f5760405163ec442f0560e01b815260006004820152602401610098565b61014b6000838361014f565b5050565b6001600160a01b03831661017a57806002600082825461016f91906103d6565b909155506101ec9050565b6001600160a01b038316600090815260208190526040902054818110156101cd5760405163391434e360e21b81526001600160a01b03851660048201526024810182905260448101839052606401610098565b6001600160a01b03841660009081526020819052604090209082900390555b6001600160a01b03821661020857600280548290039055610227565b6001600160a01b03821660009081526020819052604090208054820190555b816001600160a01b0316836001600160a01b03167fddf252ad1be2c89b69c2b068fc378daa952ba7f163c4a11628f55a4df523b3ef8360405161026c91815260200190565b60405180910390a3505050565b634e487b7160e01b600052604160045260246000fd5b600181811c908216806102a357607f821691505b6020821081036102c357634e487b7160e01b600052602260045260246000fd5b50919050565b601f82111561031357806000526020600020601f840160051c810160208510156102f05750805b601f840160051c820191505b8181101561031057600081556001016102fc565b50505b505050565b81516001600160401b0381111561033157610331610279565b6103458161033f845461028f565b846102c9565b6020601f82116001811461037957600083156103615750848201515b600019600385901b1c1916600184901b178455610310565b600084815260208120601f198516915b828110156103a95787850151825560209485019460019092019101610389565b50848210156103c75786840151600019600387901b60f8161c191681555b50505050600190811b01905550565b808201808211156103f757634e487b7160e01b600052601160045260246000fd5b92915050565b610ee58061040c6000396000f3fe608060405234801561001057600080fd5b50600436106101215760003560e01c80634c0f38c2116100ad578063969f870811610071578063969f87081461025d578063a9059cbb14610289578063d83954161461029c578063dd62ed3e146102af578063f2fde38b146102e857600080fd5b80634c0f38c2146101f957806370a0823114610209578063715018a6146102325780638da5cb5b1461023a57806395d89b411461025557600080fd5b806318160ddd116100f457806318160ddd1461019f57806323b872dd146101b1578063313ce567146101c457806340c10f19146101d357806342966c68146101e657600080fd5b806306fdde0314610126578063095ea7b3146101445780630bc7133b1461016757806317435e1a1461018a575b600080fd5b61012e6102fb565b60405161013b9190610c61565b60405180910390f35b610157610152366004610ccb565b61038d565b604051901515815260200161013b565b610157610175366004610cf5565b60066020526000908152604090205460ff1681565b61019d610198366004610d10565b6103a7565b005b6002545b60405190815260200161013b565b6101576101bf366004610d84565b610535565b6040516012815260200161013b565b61019d6101e1366004610ccb565b6105a3565b61019d6101f4366004610dc1565b610658565b69d3c21bcecceda10000006101a3565b6101a3610217366004610cf5565b6001600160a01b031660009081526020819052604090205490565b61019d610665565b6005546040516001600160a01b03909116815260200161013b565b61012e610679565b61015761026b366004610cf5565b6001600160a01b031660009081526006602052604090205460ff1690565b610157610297366004610ccb565b610688565b61019d6102aa366004610dc1565b6106f4565b6101a36102bd366004610dda565b6001600160a01b03918216600090815260016020908152604080832093909416825291909152205490565b61019d6102f6366004610cf5565b610820565b60606003805461030a90610e0d565b80601f016020809104026020016040519081016040528092919081815260200182805461033690610e0d565b80156103835780601f1061035857610100808354040283529160200191610383565b820191906000526020600020905b81548152906001019060200180831161036657829003601f168201915b5050505050905090565b60003361039b81858561085b565b60019150505b92915050565b3360009081526006602052604090205460ff16156104185760405162461bcd60e51b815260206004820152602360248201527f5175657374546f6b656e3a20717565737420616c726561647920636f6d706c656044820152621d195960ea1b60648201526084015b60405180910390fd5b69d3c21bcecceda100000061042c60025490565b61043f906802b5e3af16b1880000610e47565b111561045d5760405162461bcd60e51b815260040161040f90610e68565b604080518082018252600b81526a717565737462726964676560a81b602090910152517f946be5d138ddb271a0f49556e75ef731b538d17539eb2c4dfd868c100d84d673906104af9084908490610e9f565b6040518091039020146105045760405162461bcd60e51b815260206004820152601860248201527f5175657374546f6b656e3a2077726f6e6720616e737765720000000000000000604482015260640161040f565b336000818152600660205260409020805460ff19166001179055610531906802b5e3af16b188000061086d565b5050565b6000806105438585856108a3565b90508080156105525750600083115b1561059b57836001600160a01b03167f6618f11353f68847dc28cc4b36a04270fab5e356fa35386e6315ba7ff205a6338460405161059291815260200190565b60405180910390a25b949350505050565b6105ab6108c7565b6001600160a01b0382166106115760405162461bcd60e51b815260206004820152602760248201527f5175657374546f6b656e3a2063616e6e6f74206d696e7420746f207a65726f206044820152666164647265737360c81b606482015260840161040f565b69d3c21bcecceda10000008161062660025490565b6106309190610e47565b111561064e5760405162461bcd60e51b815260040161040f90610e68565b610531828261086d565b61066233826108f4565b50565b61066d6108c7565b610677600061092a565b565b60606004805461030a90610e0d565b600080610695848461097c565b90508080156106a45750600083115b156106ed57836001600160a01b03167f6618f11353f68847dc28cc4b36a04270fab5e356fa35386e6315ba7ff205a633846040516106e491815260200190565b60405180910390a25b9392505050565b806802b5e3af16b1880000148061071357508068056bc75e2d63100000145b80610726575080680ad78ebc5ac6200000145b61077c5760405162461bcd60e51b815260206004820152602160248201527f5175657374546f6b656e3a20696e76616c69642066617563657420616d6f756e6044820152601d60fa1b606482015260840161040f565b69d3c21bcecceda10000008161079160025490565b61079b9190610e47565b11156107b95760405162461bcd60e51b815260040161040f90610e68565b33600090815260208190526040902054156108165760405162461bcd60e51b815260206004820152601f60248201527f5175657374546f6b656e3a2063616e206f6e6c7920636c61696d206f6e636500604482015260640161040f565b610662338261086d565b6108286108c7565b6001600160a01b03811661085257604051631e4fbdf760e01b81526000600482015260240161040f565b6106628161092a565b610868838383600161098a565b505050565b6001600160a01b0382166108975760405163ec442f0560e01b81526000600482015260240161040f565b61053160008383610a60565b6000336108b1858285610b8a565b6108bc858585610c02565b506001949350505050565b6005546001600160a01b031633146106775760405163118cdaa760e01b815233600482015260240161040f565b6001600160a01b03821661091e57604051634b637e8f60e11b81526000600482015260240161040f565b61053182600083610a60565b600580546001600160a01b038381166001600160a01b0319831681179093556040519116919082907f8be0079c531659141344cd1fd0a4f28419497f9722a3daafe3b4186f6b6457e090600090a35050565b60003361039b818585610c02565b6001600160a01b0384166109b45760405163e602df0560e01b81526000600482015260240161040f565b6001600160a01b0383166109de57604051634a1406b160e11b81526000600482015260240161040f565b6001600160a01b0380851660009081526001602090815260408083209387168352929052208290558015610a5a57826001600160a01b0316846001600160a01b03167f8c5be1e5ebec7d5bd14f71427d1e84f3dd0314c0f7b2291e5b200ac8c7c3b92584604051610a5191815260200190565b60405180910390a35b50505050565b6001600160a01b038316610a8b578060026000828254610a809190610e47565b90915550610afd9050565b6001600160a01b03831660009081526020819052604090205481811015610ade5760405163391434e360e21b81526001600160a01b0385166004820152602481018290526044810183905260640161040f565b6001600160a01b03841660009081526020819052604090209082900390555b6001600160a01b038216610b1957600280548290039055610b38565b6001600160a01b03821660009081526020819052604090208054820190555b816001600160a01b0316836001600160a01b03167fddf252ad1be2c89b69c2b068fc378daa952ba7f163c4a11628f55a4df523b3ef83604051610b7d91815260200190565b60405180910390a3505050565b6001600160a01b038381166000908152600160209081526040808320938616835292905220546000198114610a5a5781811015610bf357604051637dc7a0d960e11b81526001600160a01b0384166004820152602481018290526044810183905260640161040f565b610a5a8484848403600061098a565b6001600160a01b038316610c2c57604051634b637e8f60e11b81526000600482015260240161040f565b6001600160a01b038216610c565760405163ec442f0560e01b81526000600482015260240161040f565b610868838383610a60565b602081526000825180602084015260005b81811015610c8f5760208186018101516040868401015201610c72565b506000604082850101526040601f19601f83011684010191505092915050565b80356001600160a01b0381168114610cc657600080fd5b919050565b60008060408385031215610cde57600080fd5b610ce783610caf565b946020939093013593505050565b600060208284031215610d0757600080fd5b6106ed82610caf565b60008060208385031215610d2357600080fd5b823567ffffffffffffffff811115610d3a57600080fd5b8301601f81018513610d4b57600080fd5b803567ffffffffffffffff811115610d6257600080fd5b856020828401011115610d7457600080fd5b6020919091019590945092505050565b600080600060608486031215610d9957600080fd5b610da284610caf565b9250610db060208501610caf565b929592945050506040919091013590565b600060208284031215610dd357600080fd5b5035919050565b60008060408385031215610ded57600080fd5b610df683610caf565b9150610e0460208401610caf565b90509250929050565b600181811c90821680610e2157607f821691505b602082108103610e4157634e487b7160e01b600052602260045260246000fd5b50919050565b808201808211156103a157634e487b7160e01b600052601160045260246000fd5b6020808252601f908201527f5175657374546f6b656e3a206d617820737570706c7920657863656564656400604082015260600190565b818382376000910190815291905056fea264697066735822122024ba6fd544e4a940ed575c83e420d7e694b78505627b5fa156bdd0b955f8b1e164736f6c634300081b0033",
  "linkReferences": {},
  "deployedLinkReferences": {}
}