{
  "_format": "hh-sol-artifact-1",
  "contractName": "QuestToken",
  "sourceName": "QuestToken.sol",
  "abi": [
    {
      "inputs": [],
      "stateMutability": "nonpayable",
      "type": "constructor"
    },
    {
      "inputs": [
        {
          "internalType": "address",
          "name": "spender",
          "type": "address"
        },
        {
          "internalType": "uint256",
          "name": "allowance",
          "type": "uint256"
        },
        {
          "internalType": "uint256",
          "name": "needed",
          "type": "uint256"
        }
      ],
      "name": "ERC20InsufficientAllowance",
      "type": "error"
    },
    {
      "inputs": [
        {
          "internalType": "address",
          "name": "sender",
          "type": "address"
        },
        {
          "internalType": "uint256",
          "name": "balance",
          "type": "uint256"
        },
        {
          "internalType": "uint256",
          "name": "needed",
          "type": "uint256"
        }
      ],
      "name": "ERC20InsufficientBalance",
      "type": "error"
    },
    {
      "inputs": [
        {
          "internalType": "address",
          "name": "approver",
          "type": "address"
        }
      ],
      "name": "ERC20InvalidApprover",
      "type": "error"
    },
    {
      "inputs": [
        {
          "internalType": "address",
          "name": "receiver",
          "type": "address"
        }
      ],
      "name": "ERC20InvalidReceiver",
      "type": "error"
    },
    {
      "inputs": [
        {
          "internalType": "address",
          "name": "sender",
          "type": "address"
        }
      ],
      "name": "ERC20InvalidSender",
      "type": "error"
    },
    {
      "inputs": [
        {
          "internalType": "address",
          "name": "spender",
          "type": "address"
        }
      ],
      "name": "ERC20InvalidSpender",
      "type": "error"
    },
    {
      "inputs": [
        {
          "internalType": "address",
          "name": "owner",
          "type": "address"
        }
      ],
      "name": "OwnableInvalidOwner",
      "type": "error"
    },
    {
      "inputs": [
        {
          "internalType": "address",
          "name": "account",
          "type": "address"
        }
      ],
      "name": "OwnableUnauthorizedAccount",
      "type": "error"
    },
    {
      "anonymous": false,
      "inputs": [
        {
          "indexed": true,
          "internalType": "address",
          "name": "owner",
          "type": "address"
        },
        {
          "indexed": true,
          "internalType": "address",
          "name": "spender",
          "type": "address"
        },
        {
          "indexed": false,
          "internalType": "uint256",
          "name": "value",
          "type": "uint256"
        }
      ],
      "name": "Approval",
      "type": "event"
    },
    {
      "anonymous": false,
      "inputs": [
        {
          "indexed": true,
          "internalType": "address",
          "name": "previousOwner",
          "type": "address"
        },
        {
          "indexed": true,
          "internalType": "address",
          "name": "newOwner",
          "type": "address"
        }
      ],
      "name": "OwnershipTransferred",
      "type": "event"
    },
    {
      "anonymous": false,
      "inputs": [
        {
          "indexed": true,
          "internalType": "address",
          "name": "player",
          "type": "address"
        },
        {
          "indexed": false,
          "internalType": "uint256",
          "name": "amount",
          "type": "uint256"
        }
      ],
      "name": "QuestCompleted",
      "type": "event"
    },
    {
      "anonymous": false,
      "inputs": [
        {
          "indexed": true,
          "internalType": "address",
          "name": "from",
          "type": "address"
        },
        {
          "indexed": true,
          "internalType": "address",
          "name": "to",
          "type": "address"
        },
        {
          "indexed": false,
          "internalType": "uint256",
          "name": "value",
          "type": "uint256"
        }
      ],
      "name": "Transfer",
      "type": "event"
    },
    {
      "inputs": [
        {
          "internalType": "address",
          "name": "owner",
          "type": "address"
        },
        {
          "internalType": "address",
          "name": "spender",
          "type": "address"
        }
      ],
      "name": "allowance",
      "outputs": [
        {
          "internalType": "uint256",
          "name": "",
          "type": "uint256"
        }
      ],
      "stateMutability": "view",
      "type": "function"
    },
    {
      "inputs": [
        {
          "internalType": "address",
          "name": "spender",
          "type": "address"
        },
        {
          "internalType": "uint256",
          "name": "value",
          "type": "uint256"
        }
      ],
      "name": "approve",
      "outputs": [
        {
          "internalType": "bool",
          "name": "",
          "type": "bool"
        }
      ],
      "stateMutability": "nonpayable",
      "type": "function"
    },
    {
      "inputs": [
        {
          "internalType": "address",
          "name": "account",
          "type": "address"
        }
      ],
      "name": "balanceOf",
      "outputs": [
        {
          "internalType": "uint256",
          "name": "",
          "type": "uint256"
        }
      ],
      "stateMutability": "view",
      "type": "function"
    },
    {
      "inputs": [
        {
          "internalType": "uint256",
          "name": "amount",
          "type": "uint256"
        }
      ],
      "name": "burn",
      "outputs": [],
      "stateMutability": "nonpayable",
      "type": "function"
    },
    {
      "inputs": [],
      "name": "decimals",
      "outputs": [
        {
          "internalType": "uint8",
          "name": "",
          "type": "uint8"
        }
      ],
      "stateMutability": "view",
      "type": "function"
    },
    {
      "inputs": [],
      "name": "getMaxSupply",
      "outputs": [
        {
          "internalType": "uint256",
          "name": "",
          "type": "uint256"
        }
      ],
      "stateMutability": "pure",
      "type": "function"
    },
    {
      "inputs": [
        {
          "internalType": "address",
          "name": "to",
          "type": "address"
        },
        {
          "internalType": "uint256",
          "name": "amount",
          "type": "uint256"
        }
      ],
      "name": "mint",
      "outputs": [],
      "stateMutability": "nonpayable",
      "type": "function"
    },
    {
      "inputs": [],
      "name": "name",
      "outputs": [
        {
          "internalType": "string",
          "name": "",
          "type": "string"
        }
      ],
      "stateMutability": "view",
      "type": "function"
    },
    {
      "inputs": [],
      "name": "owner",
      "outputs": [
        {
          "internalType": "address",
          "name": "",
          "type": "address"
        }
      ],
      "stateMutability": "view",
      "type": "function"
    },
    {
      "inputs": [],
      "name": "renounceOwnership",
      "outputs": [],
      "stateMutability": "nonpayable",
      "type": "function"
    },
    {
      "inputs": [],
      "name": "symbol",
      "outputs": [
        {
          "internalType": "string",
          "name": "",
          "type": "string"
        }
      ],
      "stateMutability": "view",
      "type": "function"
    },
    {
      "inputs": [],
      "name": "totalSupply",
      "outputs": [
        {
          "internalType": "uint256",
          "name": "",
          "type": "uint256"
        }
      ],
      "stateMutability": "view",
      "type": "function"
    },
    {
      "inputs": [
        {
          "internalType": "address",
          "name": "to",
          "type": "address"
        },
        {
          "internalType": "uint256",
          "name": "value",
          "type": "uint256"
        }
      ],
      "name": "transfer",
      "outputs": [
        {
          "internalType": "bool",
          "name": "",
          "type": "bool"
        }
      ],
      "stateMutability": "nonpayable",
      "type": "function"
    },
    {
      "inputs": [
        {
          "internalType": "address",
          "name": "from",
          "type": "address"
        },
        {
          "internalType": "address",
          "name": "to",
          "type": "address"
        },
        {
          "internalType": "uint256",
          "name": "value",
          "type": "uint256"
        }
      ],
      "name": "transferFrom",
      "outputs": [
        {
          "internalType": "bool",
          "name": "",
          "type": "bool"
        }
      ],
      "stateMutability": "nonpayable",
      "type": "function"
    },
    {
      "inputs": [
        {
          "internalType": "address",
          "name": "newOwner",
          "type": "address"
        }
      ],
      "name": "transferOwnership",
      "outputs": [],
      "stateMutability": "nonpayable",
      "type": "function"
    }
  ],
  "bytecode": "0x608060405234801561001057600080fd5b50336040518060400160405280600a81526020016928bab2b9ba2a37b5b2b760b11b8152506040518060400160405280600581526020016414555154d560da1b81525081600390816100629190610318565b50600461006f8282610318565b5050506001600160a01b0381166100a157604051631e4fbdf760e01b8152600060048201526024015b60405180910390fd5b6100aa816100c3565b506100be33683635c9adc5dea00000610115565b6103fd565b600580546001600160a01b038381166001600160a01b0319831681179093556040519116919082907f8be0079c531659141344cd1fd0a4f28419497f9722a3daafe3b4186f6b6457e090600090a35050565b6001600160a01b03821661013f5760405163ec442f0560e01b815260006004820152602401610098565b61014b6000838361014f565b5050565b6001600160a01b03831661017a57806002600082825461016f91906103d6565b909155506101ec9050565b6001600160a01b038316600090815260208190526040902054818110156101cd5760405163391434e360e21b81526001600160a01b03851660048201526024810182905260448101839052606401610098565b6001600160a01b03841660009081526020819052604090209082900390555b6001600160a01b03821661020857600280548290039055610227565b6001600160a01b03821660009081526020819052604090208054820190555b816001600160a01b0316836001600160a01b03167fddf252ad1be2c89b69c2b068fc378daa952ba7f163c4a11628f55a4df523b3ef8360405161026c91815260200190565b60405180910390a3505050565b634e487b7160e01b600052604160045260246000fd5b600181811c908216806102a357607f821691505b6020821081036102c357634e487b7160e01b600052602260045260246000fd5b50919050565b601f82111561031357806000526020600020601f840160051c810160208510156102f05750805b601f840160051c820191505b8181101561031057600081556001016102fc565b50505b505050565b81516001600160401b0381111561033157610331610279565b6103458161033f845461028f565b846102c9565b6020601f82116001811461037957600083156103615750848201515b600019600385901b1c1916600184901b178455610310565b600084815260208120601f198516915b828110156103a95787850151825560209485019460019092019101610389565b50848210156103c75786840151600019600387901b60f8161c191681555b50505050600190811b01905550565b808201808211156103f757634e487b7160e01b600052601160045260246000fd5b92915050565b610b048061040c6000396000f3fe608060405234801561001057600080fd5b50600436106100f55760003560e01c80634c0f38c21161009757806395d89b411161006657806395d89b41146101f3578063a9059cbb146101fb578063dd62ed3e1461020e578063f2fde38b1461024757600080fd5b80634c0f38c21461019757806370a08231146101a7578063715018a6146101d05780638da5cb5b146101d857600080fd5b806323b872dd116100d357806323b872dd1461014d578063313ce5671461016057806340c10f191461016f57806342966c681461018457600080fd5b806306fdde03146100fa578063095ea7b31461011857806318160ddd1461013b575b600080fd5b61010261025a565b60405161010f919061093b565b60405180910390f35b61012b6101263660046109a5565b6102ec565b604051901515815260200161010f565b6002545b60405190815260200161010f565b61012b61015b3660046109cf565b610306565b6040516012815260200161010f565b61018261017d3660046109a5565b610374565b005b610182610192366004610a0c565b610462565b69d3c21bcecceda100000061013f565b61013f6101b5366004610a25565b6001600160a01b031660009081526020819052604090205490565b61018261046f565b6005546040516001600160a01b03909116815260200161010f565b610102610483565b61012b6102093660046109a5565b610492565b61013f61021c366004610a40565b6001600160a01b03918216600090815260016020908152604080832093909416825291909152205490565b610182610255366004610a25565b6104fe565b60606003805461026990610a73565b80601f016020809104026020016040519081016040528092919081815260200182805461029590610a73565b80156102e25780601f106102b7576101008083540402835291602001916102e2565b820191906000526020600020905b8154815290600101906020018083116102c557829003601f168201915b5050505050905090565b6000336102fa818585610539565b60019150505b92915050565b60008061031485858561054b565b90508080156103235750600083115b1561036c57836001600160a01b03167f6618f11353f68847dc28cc4b36a04270fab5e356fa35386e6315ba7ff205a6338460405161036391815260200190565b60405180910390a25b949350505050565b61037c61056f565b6001600160a01b0382166103e75760405162461bcd60e51b815260206004820152602760248201527f5175657374546f6b656e3a2063616e6e6f74206d696e7420746f207a65726f206044820152666164647265737360c81b60648201526084015b60405180910390fd5b69d3c21bcecceda1000000816103fc60025490565b6104069190610aad565b11156104545760405162461bcd60e51b815260206004820152601f60248201527f5175657374546f6b656e3a206d617820737570706c792065786365656465640060448201526064016103de565b61045e828261059c565b5050565b61046c33826105d2565b50565b61047761056f565b6104816000610608565b565b60606004805461026990610a73565b60008061049f848461065a565b90508080156104ae5750600083115b156104f757836001600160a01b03167f6618f11353f68847dc28cc4b36a04270fab5e356fa35386e6315ba7ff205a633846040516104ee91815260200190565b60405180910390a25b9392505050565b61050661056f565b6001600160a01b03811661053057604051631e4fbdf760e01b8152600060048201526024016103de565b61046c81610608565b6105468383836001610668565b505050565b60003361055985828561073e565b6105648585856107b6565b506001949350505050565b6005546001600160a01b031633146104815760405163118cdaa760e01b81523360048201526024016103de565b6001600160a01b0382166105c65760405163ec442f0560e01b8152600060048201526024016103de565b61045e60008383610811565b6001600160a01b0382166105fc57604051634b637e8f60e11b8152600060048201526024016103de565b61045e82600083610811565b600580546001600160a01b038381166001600160a01b0319831681179093556040519116919082907f8be0079c531659141344cd1fd0a4f28419497f9722a3daafe3b4186f6b6457e090600090a35050565b6000336102fa8185856107b6565b6001600160a01b0384166106925760405163e602df0560e01b8152600060048201526024016103de565b6001600160a01b0383166106bc57604051634a1406b160e11b8152600060048201526024016103de565b6001600160a01b038085166000908152600160209081526040808320938716835292905220829055801561073857826001600160a01b0316846001600160a01b03167f8c5be1e5ebec7d5bd14f71427d1e84f3dd0314c0f7b2291e5b200ac8c7c3b9258460405161072f91815260200190565b60405180910390a35b50505050565b6001600160a01b03838116600090815260016020908152604080832093861683529290522054600019811461073857818110156107a757604051637dc7a0d960e11b81526001600160a01b038416600482015260248101829052604481018390526064016103de565b61073884848484036000610668565b6001600160a01b0383166107e057604051634b637e8f60e11b8152600060048201526024016103de565b6001600160a01b03821661080a5760405163ec442f0560e01b8152600060048201526024016103de565b6105468383835b6001600160a01b03831661083c5780600260008282546108319190610aad565b909155506108ae9050565b6001600160a01b0383166000908152602081905260409020548181101561088f5760405163391434e360e21b81526001600160a01b038516600482015260248101829052604481018390526064016103de565b6001600160a01b03841660009081526020819052604090209082900390555b6001600160a01b0382166108ca576002805482900390556108e9565b6001600160a01b03821660009081526020819052604090208054820190555b816001600160a01b0316836001600160a01b03167fddf252ad1be2c89b69c2b068fc378daa952ba7f163c4a11628f55a4df523b3ef8360405161092e91815260200190565b60405180910390a3505050565b602081526000825180602084015260005b81811015610969576020818601810151604086840101520161094c565b506000604082850101526040601f19601f83011684010191505092915050565b80356001600160a01b03811681146109a057600080fd5b919050565b600080604083850312156109b857600080fd5b6109c183610989565b946020939093013593505050565b6000806000606084860312156109e457600080fd5b6109ed84610989565b92506109fb60208501610989565b929592945050506040919091013590565b600060208284031215610a1e57600080fd5b5035919050565b600060208284031215610a3757600080fd5b6104f782610989565b60008060408385031215610a5357600080fd5b610a5c83610989565b9150610a6a60208401610989565b90509250929050565b600181811c90821680610a8757607f821691505b602082108103610aa757634e487b7160e01b600052602260045260246000fd5b50919050565b8082018082111561030057634e487b7160e01b600052601160045260246000fdfea2646970667358221220f790b0ea7b69c6d0d53178e45a07ca88f553cb3ab6028ae07237cf8cfbe4c6a464736f6c634300081b0033",
  "linkReferences": {},
  "deployedLinkReferences": {}
}